:1000000000001420881520891820AE1920AF142074
:100010008A15208B1620361720376D781820B419D2
:1000200020B51420861520871820BE1920BF142063
:10003000BE1520BF657065701820C01920C114203E
:10004000841520851820C21920C314208815208902
:100050001820B61920B71420BE1520BF6570657032
:100060001820B81920B91420C21520C36570657016
:10007000657065706570657065701820BA1920BB71
:100080001420BA1520BB1620B61720B76D7818209B
:10009000BA1920BB1420C21520C31820C41920C5CA
:1000A0001420C41520C5122A21781820C41920C58F
:1000B0001420C41520C56570657065706570657025
:1000C000657065701820C41920C51420BE1520BFA6
:1000D0001820C61920C71420C61520C7122A217857
:1000E0001820C61920C71420C61520C76570657072
:1000F0001820C61920C71018209618209700142021
:10010000961520976570657065706570657065708F
:10011000657018204A19204B14204A15204B1620D0
:10012000B61720B76D7818204A19204B14204A15AD
:10013000204B1620361720376D7818204A19204B8F
:10014000101820981820990014209815209916202E
:100150004A17204B6D781820C81920C91420C815DB
:1001600020C91820CE1920CF1420CE1520CF16205C
:100170004E17204F3D381820CE1920CF1420CF1510
:10018000204F281C64060196001015204E71142083
:10019000CE28640501AC001420C81520C91801A799
:1001A0001901A814200E1800000201BF001420C875
:1001B0001520C91801BD1901BE14200A180000003D
:1001C000142098152099121D781820981920991438
:1001D00020981520991620C01720C128297D780461
:1001E00001E60002014700142096152097121D78A1
:1001F0001820961920971420961520971620C217BC
:1002000020C328297D7804020D000200FD0010188B
:100210002096182097001420961520976570657019
:100220001820C81920C91420C81520C91620B617CF
:1002300020B76D781820C81920C91420C81520C906
:10024000121D781820C81920C91420C81520C916F5
:1002500020361720376D781820C81920C91420C8F7
:100260001520C918026D19026E1420091800001417
:1002700020C81520C91620501720516D781820C8A5
:100280001920C91420C81520C91802931902941402
:1002900020091800001420C81520C91620C41720F2
:1002A000C56D781820C81920C91420C81520C91890
:1002B00002B91902BA14200918000016205017209C
:1002C00051112A2B1F761420C81520C96D781820CB
:1002D000C81920C91420C81520C91802E41902E55C
:1002E000142009180000142096152097121D781864
:1002F00020961920971420961520971620BE1720B7
:10030000BF28297D7804030C000202150010182074
:1003100096182097001420961520971820C81920A9
:10032000C91420C81520C965706570657065706551
:1003300070657065701820C81920C91420C8152070
:10034000C91620B61720B76D781820C81920C9140F
:1003500020C81520C9121D781820C81920C91420DA
:10036000C81520C91620361720376D781820C819EF
:1003700020C91420C81520C918038219038314202A
:10038000091800001420C81520C916205017205144
:100390006D781820C81920C91420C81520C9180361
:1003A000A81903A91420091800001420C81520C991
:1003B0001620C61720C76D781820C81920C9142028
:1003C000C81520C91803CE1903CF1420091800003E
:1003D000162050172051112A2B1F761420C81520E3
:1003E000C96D781820C81920C91420C81520C9184B
:1003F00003F91903FA142009180000142096152097
:1004000097121D781820961920971420961520977A
:100410001620C21720C328297D7804042100020376
:10042000140014209015209118042F190430140082
:100430000018200514200511611004044200020474
:100440004300200018208E19208F14208E15208F35
:1004500016206A17206B3D3818208E19208F142023
:100460002D182018021B9D00142092152093162091
:10047000361720376D781820C81920C91420C815E0
:1004800020C918048C19048D141FF21800001420C0
:10049000C81520C9121D781820C81920C91420C8F1
:1004A0001520C91804AD1904AE14200B180000144F
:1004B00020C81520C9121D781820C81920C9142079
:1004C000C81520C91804CE1904CF141FF318000052
:1004D0001420C81520C9121D781820C81920C91465
:1004E00020C81520C91804EF1904F014200B1800B7
:1004F000001420C81520C9121D781820C81920C959
:100500001420C81520C9180510190511141FF61854
:1005100000001420C81520C9121D781820C8192001
:10052000C91420C81520C918053119053214200B2B
:100530001800001420C81520C9121D781820C819E9
:1005400020C91420C81520C9180552190553141FB5
:10055000F11800001420C81520C9121D781820C8F1
:100560001920C91420C81520C91805731905741459
:10057000200B1800001420C81520C9121D7818205F
:10058000C81920C91420C81520C918059419059543
:10059000141FF21800001420C81520C9121D781865
:1005A00020C81920C91420C81520C91805B5190577
:1005B000B614200B1800001420C81520C9121D788D
:1005C0001820C81920C91420C81520C91805D61923
:1005D00005D7141FF31800001420C81520C9121DD8
:1005E000781820C81920C91420C81520C91805F783
:1005F0001905F814200B1800001420C81520C91282
:100600001D781820C81920C91420C81520C918063B
:1006100018190619141FE81800001420C81520C95D
:10062000121D781820C81920C91420C81520C9180F
:10063000063919063A14200B1800001420C815209A
:10064000C9121D781820C81920C91420C81520C93E
:1006500018065A19065B141FF81800001420C81554
:1006600020C9121D781820C81920C91420C81520C7
:10067000C918067B19067C14200B1800001420C82A
:100680001520C9121D781820C81920C91420C815B2
:1006900020C918069C19069D141FF018000014208C
:1006A000C81520C9121D781820C81920C91420C8DF
:1006B0001520C91806BD1906BE14200B1800001419
:1006C00020C81520C9121D781820C81920C9142067
:1006D000C81520C91806DE1906DF141FEF18000020
:1006E0001420C81520C9121D781820C81920C91453
:1006F00020C81520C91806FF19070014200B180080
:10070000001420C81520C9121D781820C81920C946
:100710001420C81520C9180720190721141FE8182C
:1007200000001420C81520C9121D781820C81920EF
:10073000C91420C81520C918074119074214200BF5
:100740001800001420C81520C9121D781820C819D7
:1007500020C91420C81520C9180762190763141F7F
:10076000EE1800001420C81520C9121D781820C8E2
:100770001920C91420C81520C91807831907841423
:10078000200B1800001420C81520C9121D7818204D
:10079000C81920C91420C81520C91807A41907A50D
:1007A000141FE91800001420C81520C9121D78185C
:1007B00020C81920C91420C81520C91807C5190751
:1007C000C614200B1800001420C81520C9121D786B
:1007D0001820C81920C91420C81520C91807E619FF
:1007E00007E7141FF21800001420C81520C9121DB5
:1007F000781820C81920C91420C81520C91808075E
:1008000019080814200B1800001420C81520C9125C
:100810001D781820C81920C91420C81520C9180827
:1008200028190829141FF41800001420C81520C91D
:10083000121D781820C81920C91420C81520C918FD
:10084000084919084A14200B1800001420C8152064
:10085000C9121D781820C81920C91420C81520C92C
:1008600018086A19086B141FED1800001420C81529
:1008700020C9121D781820C81920C91420C81520B5
:10088000C918088B19088C14200B1800001420C8F4
:100890001520C9121D781820C81920C91420C815A0
:1008A00020C91808AC1908AD141FF718000014204F
:1008B000C81520C9121D781820C81920C91420C8CD
:1008C0001520C91808CD1908CE14200B18000014E3
:1008D00020C81520C9121D781820C81920C9142055
:1008E0000615200464181FE51420C81520C918082F
:1008F000F81908F9141FE51800001420C81520C9BC
:10090000121D781820C81920C91420C81520C9182C
:10091000091919091A14200B1800001420C81520F1
:10092000C9121D781820C81920C9142006152003E3
:1009300064181FE51420C81520C918094419094571
:10094000141FE51800001420C81520C9121D7818BE
:1009500020C81920C91420C81520C918096519090B
:100960006614200B1800001420C81520C9121D7829
:100970001820C81920C914200615200264181FE584
:100980001420C81520C9180990190991141FE518D9
:1009900000001420C81520C9121D781820C819207D
:1009A000C91420C81520C91809B11909B214200B9F
:1009B0001800001520C916207E17207F102A2B1F33
:1009C000721420C86D781820C81920C91520C916BE
:1009D000207E17207F102A2B1F721420C86D7818D4
:1009E00020C81920C91420C81520C91809F51909EB
:1009F000F614200D1800001420C81520C9122A2151
:100A0000781820C81920C914202F116110040A1564
:100A100000020A160020001820AC1920AD14200690
:100A20001520AD64181FE51420C81520C9180A3711
:100A3000190A38141FE51800001420C81520C9121F
:100A40002A21781820C81920C91420C81520C918CF
:100A50000A59190A5A14200D1800001420C815202C
:100A6000C9122A21781820C81920C91420C81520B5
:100A7000C9180A7B190A7C1420061800001420C823
:100A80001520C9122A21781820C81920C91420C895
:100A90001520C9180A9D190A9E14200D180000146B
:100AA00020C81520C9122A21781820C81920C91475
:100AB00020C81520C9180ABF190AC014200618003A
:100AC000001420C81520C91820941920951420C896
:100AD0001520C9122A21781820C81920C91420C845
:100AE0001520C9180AED190AEE14200D180000147B
:100AF00020C81520C9122A21781820C81920C91425
:100B000020C81520C9180B0F190B10141FF7180057
:100B1000001420C81520C9122A21781820C81920CD
:100B2000C91420C81520C9180B31190B3214200D17
:100B30001800001420C81520C9122A21781820C8CE
:100B40001920C91420C81520C9180B53190B5414A7
:100B50001FED1800001420C81520C9122A2178188A
:100B600020C81920C91420C81520C9180B75190BE5
:100B70007614200D1800001420C81520C9122A214F
:100B8000781820C81920C91420C81520C9180B9737
:100B9000190B98141FF41800001420C81520C9124E
:100BA0002A21781820C81920C91420C81520C9186E
:100BB0000BB9190BBA14200D1800001420C8152009
:100BC000C9122A21781820C81920C91420C8152054
:100BD000C9180BDB190BDC141FF21800001420C815
:100BE0001520C9122A21781820C81920C91420C834
:100BF0001520C9180BFD190BFE14200D1800001448
:100C000020C81520C9122A21781820C81920C91413
:100C100020C81520C9180C1F190C20141FE9180032
:100C2000001420C81520C9122A21781820C81920BC
:100C3000C91420C81520C9180C41190C4214200DE4
:100C40001800001420C81520C9122A21781820C8BD
:100C50001920C91420C81520C9180C63190C641474
:100C60001FEE1800001420C81520C9122A21781878
:100C700020C81920C91420C81520C9180C85190CC2
:100C80008614200D1800001420C81520C9122A212E
:100C9000781820C81920C91420C81520C9180CA715
:100CA000190CA8141FE81800001420C81520C91238
:100CB0002A21781820C81920C91420C81520C9185D
:100CC0000CC9190CCA14200D1800001420C81520D6
:100CD000C9122A21781820C81920C91420C8152043
:100CE000C9180CEB190CEC141FEF1800001420C8E5
:100CF0001520C9122A21781820C81920C91420C823
:100D00001520C9180D0D190D0E14200D1800001412
:100D100020C81520C9122A21781820C81920C91402
:100D200020C81520C9180D2F190D30141FF01800F8
:100D3000001420A01520A11820A61920A714201304
:100D400018202110182096182097001420A615208E
:100D5000A7180D5B190D5C14202118000014202128
:100D6000116110040D6B00020D6C0020001820C8EA
:100D70001920C914202D182019021A7D001420C82A
:100D80001520C9180D8D190D8E14200C1800001493
:100D900020C81520C91620501720516D781820C87A
:100DA0001920C91420C81520C9180DB3190DB41481
:100DB000200C1800001420A61520A7121D7818205A
:100DC000A61920A71420211C1820211420961520D4
:100DD00097121D78182096192097142096152097A1
:100DE00016205017205128297D78040DF100020D9E
:100DF0004A001420A61520A7180E02190E0314206D
:100E0000211800001420C81520C9162050172051A1
:100E10006D781820C81920C91420C81520C91820B9
:100E2000A81920A91420C81520C9180E34190E3588
:100E300014200D1800001420C81520C916205017C2
:100E400020516D781820C81920C91420C81520C950
:100E5000180E5A190E5B14200D1800001520A1164B
:100E6000204E17204F102A2B1F721420A06D7818C7
:100E700020A41920A51420C81520C9162066172003
:100E8000676D781820C81920C91420C81520C91802
:100E90000E99190E9A14200B1800001420C8152062
:100EA000C91620501720516D781820C81920C91470
:100EB00020C81520C9180EBF190EC014200B180029
:100EC0000014200F18202514200718202014203E7D
:100ED00015203F180EDD190EDE14202D1800001409
:100EE0001FFD1820270014203C15203D180EF31973
:100EF0000EF4140000182026142026151FF8281CB4
:100F000064060F2600141FFE18202914203E152009
:100F10003F180F1B190F1C14202D18000014202D32
:100F2000182026020F2A00020EE500142044152086
:100F300045180F38190F39140000181FE5141FE564
:100F4000116110040F4B00020F4C00200018209C70
:100F500019209D14209C15209D6570657065706535
:100F600070657065706570657018209C19209D14FF
:100F70002042152043180F7C190F7D140000181F04
:100F8000E5141FE5116110040F8F00020F9000207F
:100F90000018204A19204B14204A15204B16206AAD
:100FA00017206B3D3818204A19204B14209C15201F
:100FB0009D16204A17204B6D7818209C19209D14EF
:100FC000209C15209D1620741720756D7818209E82
:100FD00019209F142026152029281C640510900034
:100FE000142026152025281C6405108F00142026A7
:100FF000151FFD281C6406100600141FFE1820296A
:1010000014200F18202500142026151FFE281C640C
:1010100006102000141FFD18202914201018202568
:1010200000142026151FFF281C6406103A00142007
:10103000001820291420111820250014202615201E
:1010400000281C6406105400141FFF1820291420C7
:101050001218202500142026151FF9281C640610DC
:10106000650002171B0014202B15202D281C640678
:1010700010850014203E15203F1810831910841489
:10108000202D1800000014202D18202B0210950090
:10109000001018202B001420A61520A71810A31943
:1010A00010A41400001820221520221720333D1907
:1010B0001FE514202515200F281C640610D90014E4
:1010C0001FE5152033281C640610D80014202215B3
:1010D0002032291D6418202200001420251520101C
:1010E000281C640610FF00141FE515202C281C6422
:1010F0000610FE0014202215203264182022000061
:101100001420221520256418202214202211611099
:10111000041118000211190020001820C81920C954
:1011200014202D18201D021A7D001420C81520C976
:101130001820AA1920AB1420AA1520AB18114319A6
:1011400011441400001820231420A61520A71811FC
:1011500055191156140000181FE5141FE5116110F0
:10116000041168000211690020001820C81920C964
:1011700014202D18201F021A7D001420C81520C924
:1011800018118A19118B14200C1800001420C8158E
:1011900020C91620501720516D781820C81920C971
:1011A0001420C81520C91811B01911B114200C1839
:1011B00000001420A61520A7121D781820A61920BB
:1011C000A71420A71520A3281C640611E8001015F9
:1011D00020A2711420A628640611E8001420A0158E
:1011E00020A11820A61920A7001420A61520A718B2
:1011F00011F91911FA1420221800001420AA152040
:10120000AB18120B19120C14200D1800001420AA90
:101210001520AB1620501720516D781820AA1920E0
:10122000AB1420AA1520AB18123119123214200D5C
:10123000180000142023152009281C6406124300FE
:1012400002171B0014202315200C281C64061254BE
:101250000002171B0014202315200A281C64061303
:1012600003001420A41520A5121D781820A419200D
:10127000A51420A51520A3281C640612980010159B
:1012800020A2711420A42864061298001420A0152E
:1012900020A11820A41920A5001420A41520A51809
:1012A00012A61912A7140000181FE5141FE51161FA
:1012B000100412B9000212BA0020001820C8192028
:1012C000C914202D18201E021A7D001420C81520D4
:1012D000C91812DB1912DC14200A1800001420C8E7
:1012E0001520C91620501720516D781820C81920D4
:1012F000C91420C81520C918130119130214200A93
:101300001800000014202315200B281C64061576F5
:10131000001420AC1520AD121D781820AC1920AD9A
:101320001520AD19200514202D182017021B9D0033
:101330001420941520951820C81920C914200415CC
:10134000200664181FE51420C81520C91813561963
:101350001357141FE51800001420C81520C91620C3
:10136000501720516D781820C81920C91420031572
:10137000200664181FE51420C81520C91813861903
:101380001387141FE51800001420C81520C9162063
:10139000501720516D781820C81920C91420021543
:1013A000200664181FE51420C81520C91813B619A3
:1013B00013B7141FE518000014208E15208F162077
:1013C000AC1720AD28297D7804145C001420C815C2
:1013D00020C916207E17207F6D781820C81920C9D3
:1013E0001420C81520C91813F01913F1141FE5189B
:1013F00000001520C9162050172051102A2B1F72EB
:101400001420C86D781820C81920C914200315208D
:101410000664181FE51420C81520C91814251914CE
:1014200026141FE51800001520C91620501720515A
:10143000102A2B1F721420C86D781820C81920C9D3
:1014400014200415200664181FE51420C81520C9AF
:1014500018145A19145B141FE5180000001420AD6D
:1014600015206D281C6406147B001015206C711467
:1014700020AC286406147B0002171B0014200D18F2
:10148000202414204C15204D182096192097001464
:10149000202415200A281C6405153D0014209615EB
:1014A000209716205217205328297D780414F40021
:1014B000142096152097121D78182096192097143D
:1014C00020401520411814CC1914CD140000181F09
:1014D000E5141FE51161100414DF000214E0002080
:1014E000001820C81920C914202D18201A021A7DAE
:1014F00000021527001420A41520A518150219159F
:1015000003140000181FE5141FE5116110041515E0
:10151000000215160020001820C81920C914202D1B
:1015200018201B021A7D00001420C81520C91815A8
:101530003519153614000018202402148E001420CA
:10154000C81520C918154E19154F14200B18000086
:101550001420C81520C91620501720516D78182066
:10156000C81920C91420C81520C918157419157573
:1015700014200B1800000010181FE5001420261579
:101580002025281C6406158C000215B200142026A4
:10159000152029281C6406159D000215B200142090
:1015A0002B15202D281C640615AE000215B2000272
:1015B00016070014203E15203F1815C01915C11438
:1015C0000000181FE5141FE515202C281C640515C4
:1015D000E40014203C15203D1815DF1915E0140017
:1015E0000018202600142026152025281C64051626
:1015F0000600142026152029281C64051605001451
:101600002026182027000000142044152045181615
:1016100015191616140000181FE5141FE5116110A6
:101620000416280002162900200018209A19209B71
:1016300014209A15209B65706570657065706570E3
:1016400065706570657018209A19209B14204215EA
:10165000204318165919165A140000181FE5141FB4
:10166000E511611004166C0002166D0020001820B0
:101670004A19204B14204A15204B16206A17206B5C
:101680003D3818204A19204B14209A15209B16200B
:101690004A17204B6D7818209A19209B14209E150C
:1016A000209F16209C17209D28297D780416E30092
:1016B00014209C15209D16209A17209B28297D78A0
:1016C0000416C70002157B0014209A15209B1620D3
:1016D0009E17209F28297D780416DF0002157B00C5
:1016E0000217110014209C15209D16209A17209B8C
:1016F00028297D780417100014209A15209B1620A5
:101700009E17209F28297D7804170F0002157B0063
:101710000000142027182026020F2A0014200B187E
:101720001FE514208E15208F1620AC1720AD282918
:101730007D78041754001520AD191FE5142090156D
:10174000209118174C19174D141FE518000014208C
:101750000D181FE5001420581520591820CA19200B
:10176000CB1420CA1520CB657065701820CA1920CB
:10177000CB1420581520591820CC1920CD1420CC7A
:101780001520CD65706570657065706570657065F4
:10179000701820CC1920CD1420AE1520AF1820C809
:1017A0001920C91420C81520C91620CC1720CD6DCA
:1017B000781820C81920C91420C81520C91620CAB5
:1017C0001720CB6D781820C81920C91420C81520FF
:1017D000C91620361720376D781820C81920C9146B
:1017E00020C81520C91817EF1917F0141FF2180098
:1017F000001420C81520C9121D781820C81920C946
:101800001420C81520C9181810191811141FE5182C
:1018100000001420C81520C9121D781820C81920EE
:10182000C91420C81520C9181831191832141FF00E
:101830001800001420C81520C9121D781820C819D6
:1018400020C91420C81520C9181852191853141F7C
:10185000E51800001420C81520C9121D781820C8EA
:101860001920C91420C81520C91818731918741420
:101870001FE81800001420C81520C9121D78182070
:10188000C81920C91420C81520C91818941918950A
:10189000141FE51800001420C81520C9121D78185F
:1018A00020C81920C91420C81520C91818B519183E
:1018B000B6141FEC1800001420C81520C9121D789A
:1018C0001820C81920C91420C81520C91818D619FD
:1018D00018D7141FE51800001420C81520C91620B9
:1018E0007E17207F6D781820C81920C91420C815CC
:1018F00020C91818FC1918FD141FE5180000142041
:10190000C81520C9122A21781820C81920C9142006
:10191000C81520C918191E19191F141FF118000025
:101920001420C81520C9122A21781820C81920C9E6
:101930001420C81520C9181940191941141FE51899
:1019400000001420C81520C9122A21781820C819AF
:1019500020C91420C81520C9181962191963141F49
:10196000E81800001420C81520C9122A2178182070
:10197000C81920C91420C81520C918198419198537
:10198000141FE51800001420C81520C9122A217858
:101990001820C81920C91420C81520C91819A6195B
:1019A00019A7141FF51800001420C81520C9122A01
:1019B00021781820C81920C91420C81520C9181961
:1019C000C81919C9141FE51800001420C81520C92A
:1019D000122A21781820C81920C91420C81520C936
:1019E0001819EA1919EB141FEF18000014203E15FE
:1019F000203F1819FC1919FD14202D18000000149F
:101A0000203C15203D181A0C191A0D14000018203E
:101A100026142026151FF8281C64061A210002002F
:101A20000100142026151FFC281C64061A4400140B
:101A3000203E15203F181A3F191A4014202D180077
:101A400000021CA000142026151FF1281C64061A91
:101A50007900142090152091181A62191A63142025
:101A60002C18000014203E15203F181A74191A75FE
:101A700014202D180000020001000219FE0014209D
:101A8000C81520C916206E17206F3D381820CA19B6
:101A900020CB1420CA1520CB657065701820CA1998
:101AA00020CB1420C81520C91620701720713D388E
:101AB0001820CC1920CD1420CC1520CD1820C81901
:101AC00020C91420C81520C965706570657018207C
:101AD000C81920C91420C81520C91620AE1720AF78
:101AE0006D781820C81920C91420C81520C91620DF
:101AF000CA1720CB6D781820C81920C91420C81522
:101B000020C91620361720376D781820C81920C92B
:101B10001420C81520C9121D781820C81920C9140E
:101B2000201915202C281C64051B330010182019BF
:101B3000020D7C0014201E15202C281C64051B4857
:101B4000001018201E0212CA0014201A15202C287A
:101B50001C64051B5D001018201A0214F0001420EC
:101B60001B15202C281C64051B72001018201B025A
:101B700015260014201D15202C281C64051B870029
:101B80001018201D0211290014201F15202C281CBC
:101B900064051B9C001018201F02117900001420FE
:101BA00005116110041BAC00021BAD0020001820C1
:101BB0004A19204B14204A15204B16206A17206B17
:101BC0003D3818204A19204B101820021018200305
:101BD000101820040014206015206116204A1720D8
:101BE0004B28297D78041C0C0015204B1620621709
:101BF0002063102A2B1F7214204A6D7818204A196E
:101C0000204B1420041C182004021BD400001420B4
:101C10005C15205D16204A17204B28297D78041C6E
:101C2000450015204B16205E17205F102A2B1F72CF
:101C300014204A6D7818204A19204B1420031C18D0
:101C40002003021C0D000014204C15204D16204AC4
:101C500017204B28297D78041C750014204A152074
:101C60004B122A217818204A19204B1420021C18E4
:101C70002002021C460014201815202C281C640584
:101C80001C8A001018201802046700142017152061
:101C90002C281C64051C9F001018201702132F000D
:101CA000001420361520371820961920970014208C
:101CB000961520971820CE1920CF1420CE1520CFAE
:101CC00016204E17204F3D381820CE1920CF142053
:101CD000CF15204F281C64061CE8001015204E71FB
:101CE0001420CE2864051CFE001420961520971899
:101CF0001CF9191CFA141FF8180000021D11001419
:101D00002096152097181D0F191D1014200A180071
:101D10000000142096152097121D7818209619207F
:101D200097142097152039281C64061D3B001015B8
:101D30002038711420962864051D3F00021CAD0058
:101D40001420361520371820C81920C90014203A4D
:101D500015203B1620C81720C928297D78041D6D41
:101D6000001420361520371820C81920C900142067
:101D7000C81520C916203617203728297D78041D5C
:101D80008E0014203A15203B1820C81920C90014D1
:101D900020C81520C916204E17204F6D7818204AEC
:101DA00019204B14204A15204B181DB3191DB414CB
:101DB00020011800000014203E15203F181DC319F3
:101DC0001DC4140000181FE5141FE515202C281C45
:101DD00064051F84001420C81520C916204E172042
:101DE0004F6D7818204A19204B14204A15204B18A3
:101DF0001DF9191DFA14200A18000014203C1520A2
:101E00003D181E08191E0914000018202614203E33
:101E100015203F181E1D191E1E14202D1800001419
:101E20002026151FF9281C64061E2F000200010041
:101E3000142026151FFA281C64061E84001420C8CE
:101E40001520C9122A21781820C81920C91420C8C1
:101E50001520C9181E5D191E5E14200A18000014F2
:101E600020C81520C9122A21781820C81920C914A1
:101E700020C81520C9181E7F191E80141FF81800CD
:101E800000021D4C00142026151FFB281C64061E92
:101E9000BD001420C81520C916207E17207F6D783C
:101EA0001820C81920C91420C81520C91620761773
:101EB00020773D381820C81920C9021D4C00142075
:101EC00026151FFC281C64061EE2001420C81520DD
:101ED000C91620541720556D781820C81920C9023A
:101EE0001D4C00142026151FFD281C64061F07002A
:101EF0001420C81520C91620501720516D781820BD
:101F0000C81920C9021D4C00142026151FFE281CCC
:101F100064061F31001520C9162050172051102AC1
:101F20002B1F721420C86D781820C81920C9021DF3
:101F30004C00142026151FFF281C64061F56001491
:101F400020C81520C916207E17207F6D781820C85C
:101F50001920C9021D4C00142026152000281C64DD
:101F6000061F80001520C916207E17207F102A2BFF
:101F70001F721420C86D781820C81920C9021D4C82
:101F800000021F8800021DB5001420C81520C918C2
:101F90001F99191F9A1420261800001420C8152014
:101FA000C9121D781820C81920C91420C81520C9C5
:101FB000181FBA191FBB14200A1800001420C815D6
:101FC00020C9121D781820C81920C9021D4C020012
:101FD0000000021FD100000000000000000000000F
:101FE0000000000000004143454748494C4D4E4F1A
:101FF000505253545556993A201B080D0901FF10B1
:10200000F0A0000000003001000103040809FF01F6
:10201000FF10F0730000000000000000000000004E
:10202000000000030304010100000000000102039E
:102030000708100F0000E000EF00EEFEF2C0F2C152
:10204000F2C2F2C3F2C4F2C5F3C400000000000102
:102050000002000300040006000700080009000A4F
:10206000006300640010001200FE00FF0100000F7A
:1020700000F080000064FF80000000010F0000807D
:10208000001E01000010001003A00B60007A000089
:10209000F30002B8025E0000000000000000000033
:1020A000F400F500F4FF0000000000000003000051
:1020B0000000000000000000000000000000000020
:1020C0000000000000000000000000000000000010
:1020D0000000000000000000000000000000000000
:1020E00000000000000000000000000000000000F0
:10EF0000C903CD03CD03CD03CD03CD0349034E0388
:10EF100046034F03CD03CD03CD03CD03CD03BB0388
:10EF2000BA03200320032003410364037203650333
:10EF30007303730365033A03200320032003BA031A
:10EF4000BA03200320032003200324035A035A0397
:10EF50005A035A0320032003200320032003BA038B
:10EF6000C703C403C403C403C403C403C403C20368
:10EF7000C403C403C403C403C403C403C403B60367
:10EF8000BA03200352032F0357033A032003B303AA
:10EF9000200344036103740361033A032003BA03AB
:10EFA000BA03200320035A03200320032003B303E2
:10EFB0002003200324035A035A0320032003BA0327
:10EFC000C703C403C403C403C403C403C403C10309
:10EFD000C403C403C403C403C403C403C403B60307
:10EFE000BA032003200343036C036F0363036B0323
:10EFF000200366037203650371033A032003BA0317
:10F00000BA032003200320035A035A0320034503B5
:10F010002D035A03200348037A0320032003BA0375
:10F02000CC03CD03CD03CD03CD03CD03CD03CD0361
:10F03000CD03CD03CD03CD03CD03CD03CD03B90364
:10F04000BA032003440365037403740365032003B8
:10F0500065037203200365036E0320032003BA03D4
:10F06000BA03730365036C0376036C0361036703E0
:10F070006403200338032D03620369037403BA0396
:10F08000BA03200364036103740361036D03610326
:10F0900073036B0369036E03210320032003BA0388
:10F0A000BA032003200320032003200320032003AE
:10F0B0002003200320032003200320032003BA039E
:10F0C000BA03200320034303500355032D036503B4
:10F0D0006E03200365037203200320032003BA0399
:10F0E000BA036C03610367036503740320036D03B4
:10F0F000650364032003540354034C032D03BA0334
:10F10000BA036C036F03670369036B036B032E037E
:10F110002003520365037303740365036E03BA038C
:10F12000BA036103760320036D03610373036B036A
:10F1300069036E0365036E03200365037203BA035C
:10F14000BA0320036C0361036703650374032003A0
:10F150006D0365036403200365036E032003BA0394
:10F16000BA03200320032003200346035003470370
:10F1700041032E0320032003200320032003BA03AE
:10F18000BA032003200320032003200320032003CD
:10F190002003200320032003200320032003BA03BD
:10F1A000BA0320032003200320032003080B0A0BCB
:10F1B0000D0B0E0B20032003200320032003BA03B2
:10F1C000BA03200320032003200320032003100B95
:10F1D000110B200320032003200320032003BA0384
:10F1E000BA03200348039403670373036B03750397
:10F1F0006C0365036E032003700386032003BA03C8
:10F20000BA032003200356036503730374036C03DE
:10F2100061036E0364036503740320032003BA03D0
:10F22000BA0320032003200320032003200320032C
:10F230002003200320032003200320032003BA031C
:10F24000BA034C036103670365037403200361037E
:10F2500076033A0320032003200320032003BA038C
:10F26000BA034A03610363036F03620320034B0382
:10F270007603610373036E03650373032C03BA0300
:10F28000BA0353036F036E03640372036503200321
:10F290004A036F0368036E03730365036E03BA03C7
:10F2A000C803CD03CD03CD03CD03CD03CD03CD03E3
:10F2B000CD03CD03CD03CD03CD03CD03CD03BC03DF
:10F2C000000000000000000000000000000000003E
:10F2D000000000000000000000000000000000002E
:10F2E000000000000000000000000000000000001E
:10F2F000000000000000000000000000000000000E
:00000001FF
