:10000000411C411C411C411C411C411C411C411C08
:10001000411C411C411C411C411C411C411C411CF8
:10002000411C411C411C411C411C411C411C411CE8
:10003000411C411C411C411C411C411C411C411CD8
:10808000FFB6FF00FF00FF00FF00FF00FF00FF0042
:10809000FF00FF00FF00FF00FF00FF00FF00FF00E8
:1080A000FF00FF00FF00FF00FF00FF00FF00FF00D8
:1080B000FF00FF00FF00FF00FF00FF00FF00FF00C8
:1080C000FF00FF00FF00FF00FF00FF00FF00FF00B8
:1080D000FF00FF00FF00FF00FF00FF00FF00FF00A8
:1080E000FF00FF00FF00FF00FF00FF00FF00FF0098
:1080F000FF00FF00FF00FF00FF00FF00FF00FFB6D2
:10810000FFB6FF00FF00FF00FF00FF00FF00FF00C1
:10811000FF00FF00FF00FF00FF00FF00FF00FF0067
:10812000FF00FF00FF00FF00FF00FF00FF00FF0057
:10813000FF00FF00FF00FF00FF00FF00FF00FF0047
:10814000FF00FF00FF00FF00FF00FF00FF00FF0037
:10815000FF00FF00FF00FF00FF00FF00FF00FF0027
:10816000FF00FF00FF00FF00FF00FF00FF00FF0017
:10817000FF00FF00FF00FF00FF00FF00FF00FFB651
:10818000FFB6FF00FF00FF00FF00FF00FF00FF0041
:10819000FF00FF00FF00FF00FF00FF00FF00FF00E7
:1081A000FF00FF00FF00FF00FF00FF00FF00FF00D7
:1081B000FF00FF00FF00FF00FF00FF00FF00FF00C7
:1081C000FF00FF00FF00FF00FF00FF00FF00FF00B7
:1081D000FF00FF00FF00FF00FF00FF00FF00FF00A7
:1081E000FF00FF00FF00FF00FF00FF00FF00FF0097
:1081F000FF00FF00FF00FF00FF00FF00FF00FFB6D1
:10820000FFB6FF00FF00FF00FF00FF00FF00FF00C0
:10821000FF00FF00FF00FF00FF00FF00FF00FF0066
:10822000FF00FF00FF00FF00FF00FF00FF00FF0056
:10823000FF00FF00FF00FF00FF00FF00FF00FF0046
:10824000FF00FF00FF00FF00FF00FF00FF00FF0036
:10825000FF00FF00FF00FF00FF00FF00FF00FF0026
:10826000FF00FF00FF00FF00FF00FF00FF00FF0016
:10827000FF00FF00FF00FF00FF00FF00FF00FFB650
:10828000FFB6FF00FF00FF00FF00FF00FF00FF0040
:10829000FF00FF00FF00FF00FF00FF00FF00FF00E6
:1082A000FF00FF00FF00FF00FF00FF00FF00FF00D6
:1082B000FF00FF00FF00FF00FF00FF00FF00FF00C6
:1082C000FF00FF00FF00FF00FF00FF00FF00FF00B6
:1082D000FF00FF00FF00FF00FF00FF00FF00FF00A6
:1082E000FF00FF00FF00FF00FF00FF00FF00FF0096
:1082F000FF00FF00FF00FF00FF00FF00FF00FFB6D0
:10830000FFB6FF00FF00FF00FF00FF00FF00FF00BF
:10831000FF00FF00FF00FF00FF00FF00FF00FF0065
:10832000FF00FF00FF00FF00FF00FF00FF00FF0055
:10833000FF00FF00FF00FF00FF00FF00FF00FF0045
:10834000FF00FF00FF00FF00FF00FF00FF00FF0035
:10835000FF00FF00FF00FF00FF00FF00FF00FF0025
:10836000FF00FF00FF00FF00FF00FF00FF00FF0015
:10837000FF00FF00FF00FF00FF00FF00FF00FFB64F
:10838000FFB6FF00FF00FF00FF00FF00FF00FF003F
:10839000FF00FF00FF00FF00FF00FF00FF00FF00E5
:1083A000FF00FF00FF00FF00FF00FF00FF00FF00D5
:1083B000FF00FF00FF00FF00FF00FF00FF00FF00C5
:1083C000FF00FF00FF00FF00FF00FF00FF00FF00B5
:1083D000FF00FF00FF00FF00FF00FF00FF00FF00A5
:1083E000FF00FF00FF00FF00FF00FF00FF00FF0095
:1083F000FF00FF00FF00FF00FF00FF00FF00FFB6CF
:10840000FFB6FF00FF00FF00FF00FF00FF00FF00BE
:10841000FF00FF00FF00FF00FF00FF00FF00FF0064
:10842000FF00FF00FF00FF00FF00FF00FF00FF0054
:10843000FF00FF00FF00FF00FF00FF00FF00FF0044
:10844000FF00FF00FF00FF00FF00FF00FF00FF0034
:10845000FF00FF00FF00FF00FF00FF00FF00FF0024
:10846000FF00FF00FF00FF00FF00FF00FF00FF0014
:10847000FF00FF00FF00FF00FF00FF00FF00FFB64E
:10848000FFB6FF00FF00FF00FF00FF00FF00FF003E
:10849000FF00FF00FF00FF00FF00FF00FF00FF00E4
:1084A000FF00FF00FF00FF00FF00FF00FF00FF00D4
:1084B000FF00FF00FF00FF00FF00FF00FF00FF00C4
:1084C000FF00FF00FF00FF00FF00FF00FF00FF00B4
:1084D000FF00FF00FF00FF00FF00FF00FF00FF00A4
:1084E000FF00FF00FF00FF00FF00FF00FF00FF0094
:1084F000FF00FF00FF00FF00FF00FF00FF00FFB6CE
:10850000FFB6FF00FF00FF00FF00FF00FF00FF00BD
:10851000FF00FF00FF00FF00FF00FF00FF00FF0063
:10852000FF00FF00FF00FF00FF00FF00FF00FF0053
:10853000FF00FF00FF00FF00FF00FF00FF00FF0043
:10854000FF00FF00FF00FF00FF00FF00FF00FF0033
:10855000FF00FF00FF00FF00FF00FF00FF00FF0023
:10856000FF00FF00FF00FF00FF00FF00FF00FF0013
:10857000FF00FF00FF00FF00FF00FF00FF00FFB64D
:10858000FFB6FF00FF00FF00FF00FF00FF00FF003D
:10859000FF00FF00FF00FF00FF00FF00FF00FF00E3
:1085A000FF00FF00FF00FF00FF00FF00FF00FF00D3
:1085B000FF00FF00FF00FF00FF00FF00FF00FF00C3
:1085C000FF00FF00FF00FF00FF00FF00FF00FF00B3
:1085D000FF00FF00FF00FF00FF00FF00FF00FF00A3
:1085E000FF00FF00FF00FF00FF00FF00FF00FF0093
:1085F000FF00FF00FF00FF00FF00FF00FF00FFB6CD
:10860000FFB6FF00FF00FF00FF00FF00FF00FF00BC
:10861000FF00FF00FF00FF00FF00FF00FF00FF0062
:10862000FF00FF00FF00FF00FF00FF00FF00FF0052
:10863000FF00FF00FF00FF00FF00FF00FF00FF0042
:10864000FF00FF00FF00FF00FF00FF00FF00FF0032
:10865000FF00FF00FF00FF00FF00FF00FF00FF0022
:10866000FF00FF00FF00FF00FF00FF00FF00FF0012
:10867000FF00FF00FF00FF00FF00FF00FF00FFB64C
:10868000FFB6FF00FF00FF00FF00FF00FF00FF003C
:10869000FF00FF00FF00FF00FF00FF00FF00FF00E2
:1086A000FF00FF00FF00FF00FF00FF00FF00FF00D2
:1086B000FF00FF00FF00FF00FF00FF00FF00FF00C2
:1086C000FF00FF00FF00FF00FF00FF00FF00FF00B2
:1086D000FF00FF00FF00FF00FF00FF00FF00FF00A2
:1086E000FF00FF00FF00FF00FF00FF00FF00FF0092
:1086F000FF00FF00FF00FF00FF00FF00FF00FFB6CC
:10870000FFB6FF00FF00FF00FF00FF00FF00FF00BB
:10871000FF00FF00FF00FF00FF00FF00FF00FF0061
:10872000FF00FF00FF00FF00FF00FF00FF00FF0051
:10873000FF00FF00FF00FF00FF00FF00FF00FF0041
:10874000FF00FF00FF00FF00FF00FF00FF00FF0031
:10875000FF00FF00FF00FF00FF00FF00FF00FF0021
:10876000FF00FF00FF00FF00FF00FF00FF00FF0011
:10877000FF00FF00FF00FF00FF00FF00FF00FFB64B
:10878000FFB6FF00FF00FF00FF00FF00FF00FF003B
:10879000FF00FF00FF00FF00FF00FF00FF00FF00E1
:1087A000FF00FF00FF00FF00FF00FF00FF00FF00D1
:1087B000FF00FF00FF00FF00FF00FF00FF00FF00C1
:1087C000FF00FF00FF00FF00FF00FF00FF00FF00B1
:1087D000FF00FF00FF00FF00FF00FF00FF00FF00A1
:1087E000FF00FF00FF00FF00FF00FF00FF00FF0091
:1087F000FF00FF00FF00FF00FF00FF00FF00FFB6CB
:10880000FFB6FF00FF00FF00FF00FF00FF00FF00BA
:10881000FF00FF00FF00FF00FF00FF00FF00FF0060
:10882000FF00FF00FF00FF00FF00FF00FF00FF0050
:10883000FF00FF00FF00FF00FF00FF00FF00FF0040
:10884000FF00FF00FF00FF00FF00FF00FF00FF0030
:10885000FF00FF00FF00FF00FF00FF00FF00FF0020
:10886000FF00FF00FF00FF00FF00FF00FF00FF0010
:10887000FF00FF00FF00FF00FF00FF00FF00FFB64A
:10888000FFB6FF00FF00FF00FF00FF00FF00FF003A
:10889000FF00FF00FF00FF00FF00FF00FF00FF00E0
:1088A000FF00FF00FF00FF00FF00FF00FF00FF00D0
:1088B000FF00FF00FF00FF00FF00FF00FF00FF00C0
:1088C000FF00FF00FF00FF00FF00FF00FF00FF00B0
:1088D000FF00FF00FF00FF00FF00FF00FF00FF00A0
:1088E000FF00FF00FF00FF00FF00FF00FF00FF0090
:1088F000FF00FF00FF00FF00FF00FF00FF00FFB6CA
:10890000FFB6FF00FF00FF00FF00FF00FF00FF00B9
:10891000FF00FF00FF00FF00FF00FF00FF00FF005F
:10892000FF00FF00FF00FF00FF00FF00FF00FF004F
:10893000FF00FF00FF00FF00FF00FF00FF00FF003F
:10894000FF00FF00FF00FF00FF00FF00FF00FF002F
:10895000FF00FF00FF00FF00FF00FF00FF00FF001F
:10896000FF00FF00FF00FF00FF00FF00FF00FF000F
:10897000FF00FF00FF00FF00FF00FF00FF00FFB649
:10898000FFB6FF00FF00FF00FF00FF00FF00FF0039
:10899000FF00FF00FF00FF00FF00FF00FF00FF00DF
:1089A000FF00FF00FF00FF00FF00FF00FF00FF00CF
:1089B000FF00FF00FF00FF00FF00FF00FF00FF00BF
:1089C000FF00FF00FF00FF00FF00FF00FF00FF00AF
:1089D000FF00FF00FF00FF00FF00FF00FF00FF009F
:1089E000FF00FF00FF00FF00FF00FF00FF00FF008F
:1089F000FF00FF00FF00FF00FF00FF00FF00FFB6C9
:108A0000FFB6FF00FF00FF00FF00FF00FF00FF00B8
:108A1000FF00FF00FF00FF00FF00FF00FF00FF005E
:108A2000FF00FF00FF00FF00FF00FF00FF00FF004E
:108A3000FF00FF00FF00FF00FF00FF00FF00FF003E
:108A4000FF00FF00FF00FF00FF00FF00FF00FF002E
:108A5000FF00FF00FF00FF00FF00FF00FF00FF001E
:108A6000FF00FF00FF00FF00FF00FF00FF00FF000E
:108A7000FF00FF00FF00FF00FF00FF00FF00FFB648
:108A8000FFB6FF00FF00FF00FF00FF00FF00FF0038
:108A9000FF00FF00FF00FF00FF00FF00FF00FF00DE
:108AA000FF00FF00FF00FF00FF00FF00FF00FF00CE
:108AB000FF00FF00FF00FF00FF00FF00FF00FF00BE
:108AC000FF00FF00FF00FF00FF00FF00FF00FF00AE
:108AD000FF00FF00FF00FF00FF00FF00FF00FF009E
:108AE000FF00FF00FF00FF00FF00FF00FF00FF008E
:108AF000FF00FF00FF00FF00FF00FF00FF00FFB6C8
:108B0000FFB6FF00FF00FF00FF00FF00FF00FF00B7
:108B1000FF00FF00FF00FF00FF00FF00FF00FF005D
:108B2000FF00FF00FF00FF00FF00FF00FF00FF004D
:108B3000FF00FF00FF00FF00FF00FF00FF00FF003D
:108B4000FF00FF00FF00FF00FF00FF00FF00FF002D
:108B5000FF00FF00FF00FF00FF00FF00FF00FF001D
:108B6000FF00FF00FF00FF00FF00FF00FF00FF000D
:108B7000FF00FF00FF00FF00FF00FF00FF00FFB647
:108B8000FFB6FF00FF00FF00FF00FF00FF00FF0037
:108B9000FF00FF00FF00FF00FF00FF00FF00FF00DD
:108BA000FF00FF00FF00FF00FF00FF00FF00FF00CD
:108BB000FF00FF00FF00FF00FF00FF00FF00FF00BD
:108BC000FF00FF00FF00FF00FF00FF00FF00FF00AD
:108BD000FF00FF00FF00FF00FF00FF00FF00FF009D
:108BE000FF00FF00FF00FF00FF00FF00FF00FF008D
:108BF000FF00FF00FF00FF00FF00FF00FF00FFB6C7
:108C0000FFB6FF00FF00FF00FF00FF00FF00FF00B6
:108C1000FF00FF00FF00FF00FF00FF00FF00FF005C
:108C2000FF00FF00FF00FF00FF00FF00FF00FF004C
:108C3000FF00FF00FF00FF00FF00FF00FF00FF003C
:108C4000FF00FF00FF00FF00FF00FF00FF00FF002C
:108C5000FF00FF00FF00FF00FF00FF00FF00FF001C
:108C6000FF00FF00FF00FF00FF00FF00FF00FF000C
:108C7000FF00FF00FF00FF00FF00FF00FF00FFB646
:108C8000FFB6FF00FF00FF00FF00FF00FF00FF0036
:108C9000FF00FF00FF00FF00FF00FF00FF00FF00DC
:108CA000FF00FF00FF00FF00FF00FF00FF00FF00CC
:108CB000FF00FF00FF00FF00FF00FF00FF00FF00BC
:108CC000FF00FF00FF00FF00FF00FF00FF00FF00AC
:108CD000FF00FF00FF00FF00FF00FF00FF00FF009C
:108CE000FF00FF00FF00FF00FF00FF00FF00FF008C
:108CF000FF00FF00FF00FF00FF00FF00FF00FFB6C6
:108D0000FFB6FF00FF00FF00FF00FF00FF00FF00B5
:108D1000FF00FF00FF00FF00FF00FF00FF00FF005B
:108D2000FF00FF00FF00FF00FF00FF00FF00FF004B
:108D3000FF00FF00FF00FF00FF00FF00FF00FF003B
:108D4000FF00FF00FF00FF00FF00FF00FF00FF002B
:108D5000FF00FF00FF00FF00FF00FF00FF00FF001B
:108D6000FF00FF00FF00FF00FF00FF00FF00FF000B
:108D7000FF00FF00FF00FF00FF00FF00FF00FFB645
:108D8000FFB6FF00FF00FF00FF00FF00FF00FF0035
:108D9000FF00FF00FF00FF00FF00FF00FF00FF00DB
:108DA000FF00FF00FF00FF00FF00FF00FF00FF00CB
:108DB000FF00FF00FF00FF00FF00FF00FF00FF00BB
:108DC000FF00FF00FF00FF00FF00FF00FF00FF00AB
:108DD000FF00FF00FF00FF00FF00FF00FF00FF009B
:108DE000FF00FF00FF00FF00FF00FF00FF00FF008B
:108DF000FF00FF00FF00FF00FF00FF00FF00FFB6C5
:108E0000FFB6FF00FF00FF00FF00FF00FF00FF00B4
:108E1000FF00FF00FF00FF00FF00FF00FF00FF005A
:108E2000FF00FF00FF00FF00FF00FF00FF00FF004A
:108E3000FF00FF00FF00FF00FF00FF00FF00FF003A
:108E4000FF00FF00FF00FF00FF00FF00FF00FF002A
:108E5000FF00FF00FF00FF00FF00FF00FF00FF001A
:108E6000FF00FF00FF00FF00FF00FF00FF00FF000A
:108E7000FF00FF00FF00FF00FF00FF00FF00FFB644
:108E8000FFB6FFB6FFB6FFB6FFB6FFB6FFB6FFB63A
:108E9000FFB6FFB6FFB6FFB6FFB6FFB6FFB6FFB62A
:108EA000FFB6FFB6FFB6FFB6FFB6FFB6FFB6FFB61A
:108EB000FFB6FFB6FFB6FFB6FFB6FFB6FFB6FFB60A
:108EC000FFB6FFB6FFB6FFB6FFB6FFB6FFB6FFB6FA
:108ED000FFB6FFB6FFB6FFB6FFB6FFB6FFB6FFB6EA
:108EE000FFB6FFB6FFB6FFB6FFB6FFB6FFB6FFB6DA
:108EF000FFB6FFB6FFB6FFB6FFB6FFB6FFB6FFB6CA
:108F0000FFDFFFDFFFDFFFDFFFDFFFDFFFDFFFDF71
:108F1000FFDFFFDFFFDFFFDFFFDFFFDFFFDFFFDF61
:108F2000FFDFFF00FF00FF00FF00FF00FF00FF006A
:108F3000FF00FF00FF00FF00FF00FF00FF00FFDF5A
:108F4000FFDFFF00FF00FF00FF00FF00FF00FF004A
:108F5000FF00FF00FF00FF00FF00FF00FF00FFDF3A
:108F6000FFDFFF00FF00FF00FF00FF00FF00FF002A
:108F7000FF00FF00FF00FF00FF00FF00FF00FFDF1A
:108F8000FFDFFF00FF00FF00FF00FF00FF00FF000A
:108F9000FF00FF00FF00FF00FF00FF00FF00FFDFFA
:108FA000FFDFFF00FF00FF00FF00FF00FF00FF00EA
:108FB000FF00FF00FF00FF00FF00FF00FF00FFDFDA
:108FC000FFDFFF00FF00FF00FF00FF00FF00FF00CA
:108FD000FF00FF00FF00FF00FF00FF00FF00FFDFBA
:108FE000FFDFFF00FF00FF00FF00FF00FF00FF00AA
:108FF000FF00FF00FF00FF00FF00FF00FF00FFDF9A
:10900000FFDFFF00FF00FF00FF00FF00FF00FF0089
:10901000FF00FF00FF00FF00FF00FF00FF00FFDF79
:10902000FFDFFF00FF00FF00FF00FF00FF00FF0069
:10903000FF00FF00FF00FF00FF00FF00FF00FFDF59
:10904000FFDFFF00FF00FF00FF00FF00FF00FF0049
:10905000FF00FF00FF00FF00FF00FF00FF00FFDF39
:10906000FFDFFF00FF00FF00FF00FF00FF00FF0029
:10907000FF00FF00FF00FF00FF00FF00FF00FFDF19
:10908000FFDFFF00FF00FF00FF00FF00FF00FF0009
:10909000FF00FF00FF00FF00FF00FF00FF00FFDFF9
:1090A000FFDFFF00FF00FF00FF00FF00FF00FF00E9
:1090B000FF00FF00FF00FF00FF00FF00FF00FFDFD9
:1090C000FFDFFF00FF00FF00FF00FF00FF00FF00C9
:1090D000FF00FF00FF00FF00FF00FF00FF00FFDFB9
:1090E000FFDFFF00FF00FF00FF00FF00FF00FF00A9
:1090F000FF00FF00FF00FF00FF00FF00FF00FFDF99
:10910000FFDFFF00FF00FF00FF00FF00FF00FF0088
:10911000FF00FF00FF00FF00FF00FF00FF00FFDF78
:10912000FFDFFF00FF00FF00FF00FF00FF00FF0068
:10913000FF00FF00FF00FF00FF00FF00FF00FFDF58
:10914000FFDFFF00FF00FF00FF00FF00FF00FF0048
:10915000FF00FF00FF00FF00FF00FF00FF00FFDF38
:10916000FFDFFF00FF00FF00FF00FF00FF00FF0028
:10917000FF00FF00FF00FF00FF00FF00FF00FFDF18
:10918000FFDFFF00FF00FF00FF00FF00FF00FF0008
:10919000FF00FF00FF00FF00FF00FF00FF00FFDFF8
:1091A000FFDFFF00FF00FF00FF00FF00FF00FF00E8
:1091B000FF00FF00FF00FF00FF00FF00FF00FFDFD8
:1091C000FFDFFF00FF00FF00FF00FF00FF00FF00C8
:1091D000FF00FF00FF00FF00FF00FF00FF00FFDFB8
:1091E000FFDFFF00FF00FF00FF00FF00FF00FF00A8
:1091F000FF00FF00FF00FF00FF00FF00FF00FFDF98
:10920000FFDFFF00FF00FF00FF00FF00FF00FF0087
:10921000FF00FF00FF00FF00FF00FF00FF00FFDF77
:10922000FFDFFF00FF00FF00FF00FF00FF00FF0067
:10923000FF00FF00FF00FF00FF00FF00FF00FFDF57
:10924000FFDFFF00FF00FF00FF00FF00FF00FF0047
:10925000FF00FF00FF00FF00FF00FF00FF00FFDF37
:10926000FFDFFF00FF00FF00FF00FF00FF00FF0027
:10927000FF00FF00FF00FF00FF00FF00FF00FFDF17
:10928000FFDFFF00FF00FF00FF00FF00FF00FF0007
:10929000FF00FF00FF00FF00FF00FF00FF00FFDFF7
:1092A000FFDFFFDFFFDFFFDFFFDFFFDFFFDFFFDFCE
:1092B000FFDFFFDFFFDFFFDFFFDFFFDFFFDFFFDFBE
:1092C000411C411C411C411C411C411C411C411CB6
:1092D000411C411C411C411C411C411C411C411CA6
:00000001FF
