:1000000000001419B71519B81819DD1919DE1419DB
:10001000B91519BA16196917196A6D781819E319FB
:1000200019E41419B51519B61819ED1919EE1419A2
:10003000ED1519EE657065701819EF1919F014199E
:10004000B31519B41819F11919F21419B71519B80B
:100050001819E51919E61419ED1519EE6570657092
:100060001819E71919E81419F11519F26570657076
:10007000657065706570657065701819E91919EA21
:100080001419E91519EA1619E51719E66D78181902
:10009000E91919EA1419F11519F21819F31919F4D3
:1000A0001419F31519F4122A21781819F31919F4EF
:1000B0001419F31519F465706570657065706570D5
:1000C000657065701819F31919F41419ED1519EE06
:1000D0001819F51919F61419F51519F6122A2178B7
:1000E0001819F51919F61419F51519F665706570D2
:1000F0001819F51919F6101819C51819C600141988
:10010000C51519C665706570657065706570657038
:10011000657018197B19197C14197B15197C16192F
:10012000E51719E66D7818197B19197C14197B15D8
:10013000197C16196917196A6D7818197B19197CB9
:10014000101819C71819C8001419C71519C8161995
:100150007B17197C6D781819F71919F81419F71508
:1001600019F81819FD1919FE1419FD1519FE16199B
:100170007F1719803D381819FD1919FE1419FE153D
:100180001980281C64060196001015197F71141936
:10019000FD28640501AC001419F71519F81801A71A
:1001A0001901A81419431800000201BF001419F71F
:1001B0001519F81801BD1901BE14193F18000000E7
:1001C0001419C71519C8121D781819C71919C81498
:1001D00019C71519C81619EF1719F028297D7804C1
:1001E00001E600020147001419C51519C6121D7851
:1001F0001819C51919C61419C51519C61619F117F4
:1002000019F228297D7804020D000200FD00101863
:1002100019C51819C6001419C51519C66570657079
:100220001819F71919F81419F71519F81619E51707
:1002300019E66D781819F71919F81419F71519F83E
:10024000121D781819F71919F81419F71519F81655
:10025000196917196A6D781819F71919F81419F727
:100260001519F818026D19026E14193E18000014C1
:1002700019F71519F81619811719826D781819F7D9
:100280001919F81419F71519F8180293190294148A
:10029000193E1800001419F71519F81619F3171953
:1002A000F46D781819F71919F81419F71519F818C1
:1002B00002B91902BA14193E18000016198117194B
:1002C00082112A2B1F761419F71519F86D78181951
:1002D000F71919F81419F71519F81802E41902E5B5
:1002E00014193E1800001419C51519C6121D7818E6
:1002F00019C51919C61419C51519C61619ED1719F6
:10030000EE28297D7804030C00020215001018194C
:10031000C51819C6001419C51519C61819F71919E1
:10032000F81419F71519F8657065706570657065D2
:1003300070657065701819F71919F81419F71519FF
:10034000F81619E51719E66D781819F71919F81440
:1003500019F71519F8121D781819F71919F8141941
:10036000F71519F816196917196A6D781819F71918
:1003700019F81419F71519F81803821903831419B9
:100380003E1800001419F71519F81619811719826B
:100390006D781819F71919F81419F71519F81803C1
:1003A000A81903A914193E1800001419F71519F813
:1003B0001619F51719F66D781819F71919F814198F
:1003C000F71519F81803CE1903CF14193E180000B9
:1003D000161981171982112A2B1F761419F715196E
:1003E000F86D781819F71919F81419F71519F8187C
:1003F00003F91903FA14193E1800001419C5151948
:10040000C6121D781819C51919C61419C51519C6AB
:100410001619F11719F228297D7804042100020326
:1004200014001419BF1519C018042F190430140032
:100430000018193A14193A11611004044200020418
:10044000430020001819BD1919BE1419BD1519BE95
:1004500016199B17199C3D381819BD1919BE141986
:100460006018194D02180A001419C11519C216197D
:100470006917196A6D781819F71919F81419F71509
:1004800019F818048C19048D14192918000014196E
:10049000F71519F8121D781819F71919F81419F722
:1004A0001519F81804AD1904AE14194018000014F9
:1004B00019F71519F8121D781819F71919F81419E0
:1004C000F71519F81804CE1904CF14192A180000CA
:1004D0001419F71519F8121D781819F71919F814C5
:1004E00019F71519F81804EF1904F0141940180039
:1004F000001419F71519F8121D781819F71919F8B9
:100500001419F71519F818051019051114192818D8
:1005100000001419F71519F8121D781819F7191990
:10052000F81419F71519F81805311905321419407E
:100530001800001419F71519F8121D781819F71971
:1005400019F81419F71519F8180552190553141943
:10055000291800001419F71519F8121D781819F741
:100560001919F81419F71519F818057319057414E1
:1005700019401800001419F71519F8121D781819E8
:10058000F71919F81419F71519F81805941905959C
:100590001419311800001419F71519F8121D7818DC
:1005A00019F71919F81419F71519F81805B51905D7
:1005B000B61419401800001419F71519F8121D780F
:1005C0001819F71919F81419F71519F81805D61983
:1005D00005D714192E1800001419F71519F8121D53
:1005E000781819F71919F81419F71519F81805F7E3
:1005F0001905F81419401800001419F71519F81204
:100600001D781819F71919F81419F71519F818069B
:10061000181906191419261800001419F71519F8D5
:10062000121D781819F71919F81419F71519F8186F
:10063000063919063A1419401800001419F715194B
:10064000F8121D781819F71919F81419F71519F86F
:1006500018065A19065B14192C1800001419F715FE
:1006600019F8121D781819F71919F81419F715192E
:10067000F818067B19067C1419401800001419F7A5
:100680001519F8121D781819F71919F81419F71512
:1006900019F818069C19069D14192D180000141934
:1006A000F71519F8121D781819F71919F81419F710
:1006B0001519F81806BD1906BE14194018000014C3
:1006C00019F71519F8121D781819F71919F81419CE
:1006D000F71519F81806DE1906DF14192718000097
:1006E0001419F71519F8121D781819F71919F814B3
:1006F00019F71519F81806FF190700141940180002
:10070000001419F71519F8121D781819F71919F8A6
:100710001419F71519F8180720190721141930189A
:1007200000001419F71519F8121D781819F719197E
:10073000F81419F71519F818074119074214194048
:100740001800001419F71519F8121D781819F7195F
:1007500019F814193B151939641819241419F715C7
:1007600019F818076C19076D1419241800001419CA
:10077000F71519F8121D781819F71919F81419F73F
:100780001519F818078D19078E1419401800001450
:1007900019F71519F8121D781819F71919F81419FD
:1007A0003B151938641819241419F71519F8180786
:1007B000B81907B91419241800001419F71519F8F5
:1007C000121D781819F71919F81419F71519F818CE
:1007D00007D91907DA1419401800001419F7151968
:1007E000F8121D781819F71919F814193B1519374B
:1007F000641819241419F71519F8180804190805AC
:100800001419241800001419F71519F8121D781876
:1008100019F71919F81419F71519F81808251908EE
:10082000261419401800001519F81619AD1719AE3D
:10083000102A2B1F721419F76D781819F71919F867
:100840001419F71519F818085019085114194218F5
:1008500000001419F71519F8122A21781819F71938
:1008600019F814196211611004087000020871006F
:1008700020001819DB1919DC14193B1519DC641850
:1008800019241419F71519F818089219089314194E
:10089000241800001419F71519F8122A21781819CC
:1008A000F71919F81419F71519F81808B41908B533
:1008B0001419421800001419F71519F8122A217892
:1008C0001819F71919F81419F71519F81808D6197D
:1008D00008D714193B1800001419F71519F8122A33
:1008E00021781819F71919F81419F71519F81808B3
:1008F000F81908F91419421800001419F71519F815
:10090000122A21781819F71919F81419F71519F876
:1009100018091A19091B14193B1800001419F715A6
:1009200019F81819C31919C41419F71519F8122A46
:1009300021781819F71919F81419F71519F8180961
:10094000481909491419421800001419F71519F823
:10095000122A21781819F71919F81419F71519F826
:1009600018096A19096B1419301800001419F715C1
:1009700019F8122A21781819F71919F81419F71506
:1009800019F818098C19098D141942180000141946
:10099000F71519F8122A21781819F71919F81419E6
:1009A000F71519F81809AE1909AF1419271800001E
:1009B0001419F71519F8122A21781819F71919F8C6
:1009C0001419F71519F81809D01909D11419421872
:1009D00000001419F71519F8122A21781819F719B7
:1009E00019F81419F71519F81809F21909F3141957
:1009F0002D1800001419F71519F8122A2178181962
:100A0000F71919F81419F71519F8180A14190A150D
:100A10001419421800001419F71519F8122A217830
:100A20001819F71919F81419F71519F8180A3619B9
:100A30000A3714192C1800001419F71519F8122A7E
:100A400021781819F71919F81419F71519F8180A4F
:100A500058190A591419421800001419F71519F8F1
:100A6000122A21781819F71919F81419F71519F815
:100A7000180A7A190A7B1419261800001419F71598
:100A800019F8122A21781819F71919F81419F715F5
:100A900019F8180A9C190A9D141942180000141913
:100AA000F71519F8122A21781819F71919F81419D5
:100AB000F71519F8180ABE190ABF14192E180000E4
:100AC0001419CF1519D01819D51919D61419481891
:100AD0001956101819C51819C6001419D51519D6A4
:100AE000180AEA190AEB14195618000014195611BD
:100AF0006110040AFA00020AFB0020001819F71915
:100B000019F814196018194E0216EA001419F7158D
:100B100019F8180B1C190B1D141941180000141991
:100B2000F71519F81619811719826D781819F71920
:100B300019F81419F71519F8180B42190B43141961
:100B4000411800001419D51519D6121D781819D599
:100B50001919D61419561C1819561419C51519C681
:100B6000121D781819C51919C61419C51519C616F4
:100B7000198117198228297D78040B8000020AD96F
:100B8000001419D51519D6180B91190B9214195672
:100B90001800001419F71519F81619811719826D24
:100BA000781819F71919F81419F71519F81819D729
:100BB0001919D81419F71519F8180BC3190BC414FF
:100BC00019421800001419F71519F8161981171988
:100BD000826D781819F71919F81419F71519F818FA
:100BE0000BE9190BEA1419421800001519D016194F
:100BF0007F171980102A2B1F721419CF6D781819BE
:100C0000D31919D41419F71519F816199717199833
:100C10006D781819F71919F81419F71519F8180C2F
:100C200028190C291419401800001419F71519F87F
:100C30001619811719826D781819F71919F81419EE
:100C4000F71519F8180C4E190C4F1419401800001C
:100C500014194418195A14193C18195514196F15F8
:100C60001970180C6C190C6D141960180000001420
:100C7000196D15196E180C7C190C7D1400001819CB
:100C80005B14195B151931281C64060C97001419A4
:100C90003418195D020C9B00020C6E0014197515B6
:100CA0001976180CA9190CAA140000181924141983
:100CB00024116110040CBC00020CBD0020001819A6
:100CC000CB1919CC1419CB1519CC657065706570EA
:100CD000657065706570657065701819CB1919CCF1
:100CE000141973151974180CED190CEE1400001872
:100CF0001924141924116110040D0000020D0100C3
:100D0000200018197B19197C14197B15197C1619E8
:100D10009B17199C3D3818197B19197C1419CB1590
:100D200019CC16197B17197C6D781819CB1919CCA9
:100D30001419CB1519CC1619A51719A66D78181901
:100D4000CD1919CE14195B15195D281C64050DCA3F
:100D50000014195B151933281C64060D6A00141958
:100D60003418195D14194418195A0014195B15190F
:100D700034281C64060D840014193318195D1419E5
:100D80004518195A0014195B151935281C64060DED
:100D90009E0014193618195D14194618195A0014B2
:100DA000195B151936281C64060DB800141935187E
:100DB000195D14194718195A0014195B15193228AE
:100DC0001C64060DC9000213EC00001419D5151996
:100DD000D6180DD8190DD914000018195715195720
:100DE0001719663D19192414195A151944281C6439
:100DF000060E0E00141924151966281C64060E0D23
:100E000000141957151965291D6418195700001485
:100E1000195A151945281C64060E34001419241596
:100E2000195F281C64060E330014195715196564E0
:100E3000181957000014195715195A64181957141E
:100E40001957116110040E4D00020E4E00200018BB
:100E500019F71919F81419601819520216EA001432
:100E600019F71519F81819D91919DA1419D9151902
:100E7000DA180E78190E791400001819581419D5BB
:100E80001519D6180E8A190E8B140000181924147F
:100E90001924116110040E9D00020E9E00200018FE
:100EA00019F71919F81419601819540216EA0014E0
:100EB00019F71519F8180EBF190EC01419411800AA
:100EC000001419F71519F81619811719826D781879
:100ED00019F71919F81419F71519F8180EE5190E5C
:100EE000E61419411800001419D51519D6121D78E9
:100EF0001819D51919D61419D61519D2281C640633
:100F00000F1D00101519D1711419D52864060F1D75
:100F1000001419CF1519D01819D51919D60014199C
:100F2000D51519D6180F2E190F2F141957180000A0
:100F30001419D91519DA180F40190F41141942184C
:100F400000001419D91519DA1619811719826D784C
:100F50001819D91919DA1419D91519DA180F6619C7
:100F60000F6714194218000014195815193E281C4F
:100F700064060F78000213EC001419581519412863
:100F80001C64060F89000213EC0014195815193F50
:100F9000281C64061038001419D31519D4121D78B2
:100FA0001819D31919D41419D41519D2281C640688
:100FB0000FCD00101519D1711419D32864060FCD67
:100FC000001419CF1519D01819D31919D4001419F0
:100FD000D31519D4180FDB190FDC140000181924CD
:100FE000141924116110040FEE00020FEF0020000D
:100FF0001819F71919F81419601819530216EA008C
:101000001419F71519F818101019101114193F18A0
:1010100000001419F71519F81619811719826D783F
:101020001819F71919F81419F71519F818103619AD
:10103000103714193F1800000014195815194028CA
:101040001C640612AB001419DB1519DC121D78188C
:1010500019DB1919DC1519DC19193A14196018195A
:101060004C02180A001419C31519C41819F71919D4
:10107000F814193915193B641819241419F715199E
:10108000F818108B19108C1419241800001419F773
:101090001519F81619811719826D781819F7191989
:1010A000F814193815193B641819241419F715196F
:1010B000F81810BB1910BC1419241800001419F7E3
:1010C0001519F81619811719826D781819F7191959
:1010D000F814193715193B641819241419F7151940
:1010E000F81810EB1910EC1419241800001419BD8D
:1010F0001519BE1619DB1719DC28297D7804119102
:10110000001419F71519F81619AD1719AE6D7818DE
:1011100019F71919F81419F71519F81811251911D3
:10112000261419241800001519F8161981171982A8
:10113000102A2B1F721419F76D781819F71919F85E
:1011400014193815193B641819241419F71519F8CE
:1011500018115A19115B1419241800001519F816E2
:101160001981171982102A2B1F721419F76D78181C
:1011700019F71919F814193915193B641819241499
:1011800019F71519F818118F19119014192418004E
:1011900000001419DC15199E281C640611B00010FB
:1011A00015199D711419DB28640611B0000213ECA7
:1011B0000014194218195914197D15197E1819C5EA
:1011C0001919C60014195915193F281C6405127203
:1011D000001419C51519C616198317198428297DF5
:1011E00078041229001419C51519C6121D7818198A
:1011F000C51919C61419711519721812011912029C
:101200001400001819241419241161100412140078
:101210000212150020001819F71919F8141960188E
:10122000194F0216EA0002125C001419D31519D4E2
:10123000181237191238140000181924141924111F
:10124000611004124A0002124B0020001819F7190D
:1012500019F81419601819500216EA00001419F749
:101260001519F818126A19126B140000181959028E
:1012700011C3001419F71519F818128319128414E0
:1012800019401800001419F71519F81619811719C3
:10129000826D781819F71919F81419F71519F81833
:1012A00012A91912AA141940180000000014196F8D
:1012B0001519701812BA1912BB1400001819241449
:1012C000192415195F281C640512DE0014196D1508
:1012D000196E1812D91912DA14000018195B0014CB
:1012E00019751519761812EC1912ED140000181959
:1012F000241419241161100412FF000213000020AD
:10130000001819C91919CA1419C91519CA657065BF
:10131000706570657065706570657065701819C965
:101320001919CA14197315197418133019133114B3
:101330000000181924141924116110041343000229
:10134000134400200018197B19197C14197B1519F6
:101350007C16199B17199C3D3818197B19197C1498
:1013600019C91519CA16197B17197C6D781819C96E
:101370001919CA1419CD1519CE1619CB1719CC285D
:10138000297D780413BA001419CB1519CC1619C984
:101390001719CA28297D7804139E000212AC001484
:1013A00019C91519CA1619CD1719CE28297D78041F
:1013B00013B6000212AC000213E8001419CB151981
:1013C000CC1619C91719CA28297D780413E7001407
:1013D00019C91519CA1619CD1719CE28297D7804EF
:1013E00013E6000212AC000000020C9B00141989E5
:1013F00015198A1819F91919FA1419F91519FA652C
:101400007065701819F91919FA14198915198A18BB
:1014100019FB1919FC1419FB1519FC657065706529
:101420007065706570657065701819FB1919FC148A
:1014300019DD1519DE1819F71919F81419F7151906
:10144000F81619FB1719FC6D781819F71919F81403
:1014500019F71519F81619F91719FA6D781819F7F7
:101460001919F81419F71519F816196917196A6D69
:10147000781819F71919F81419BD1519BE1619DBC2
:101480001719DC28297D780414A3001519DC191913
:10149000241419BF1519C01814A11914A214192461
:1014A000180000001419F71519F81814B41914B518
:1014B0001419281800001419F71519F8121D7818B6
:1014C00019F71919F81419F71519F81814D519146A
:1014D000D61419401800001419F71519F8121D78C0
:1014E0001819F71919F81419F71519F81814F61925
:1014F00014F71419251800001419F71519F8121DFE
:10150000781819F71919F81419F71519F818151783
:101510001915181419401800001419F71519F812A4
:101520001D781819F71919F81419F71519F818155D
:101530003819153914192B1800001419F71519F852
:10154000121D781819F71919F81419F71519F81840
:10155000155919155A1419401800001419F71519BE
:10156000F8121D781819F71919F81419F71519F840
:1015700018157A19157B1419271800001419F71576
:1015800019F8121D781819F71919F81419F71519FF
:10159000F818159B19159C1419401800001419F718
:1015A0001519F81619AD1719AE6D781819F719191C
:1015B000F81419F71519F81815C11915C21419409E
:1015C0001800001419F71519F8122A21781819F7BC
:1015D0001919F81419F71519F81815E31915E41461
:1015E000192D1800001419F71519F8122A21781866
:1015F00019F71919F81419F71519F8181605191605
:10160000061419401800001419F71519F8122A21A8
:10161000781819F71919F81419F71519F818162761
:101620001916281419271800001419F71519F8129B
:101630002A21781819F71919F81419F71519F81833
:10164000164919164A1419401800001419F71519EB
:10165000F8122A21781819F71919F81419F7151919
:10166000F818166B19166C14192F1800001419F7B6
:101670001519F8122A21781819F71919F81419F7F9
:101680001519F818168D19168E1419401800001423
:1016900019F71519F8122A21781819F71919F814D9
:1016A00019F71519F81816AF1916B014192C1800D7
:1016B0000014196F1519701816C11916C214196083
:1016C0001800000014196D15196E1816D11916D2CC
:1016D00014000018195B14195B151931281C6406D5
:1016E00016E600020001000216C3001419F71519CE
:1016F000F816199F1719A03D381819F91919FA1475
:1017000019F91519FA657065701819F91919FA148B
:1017100019F71519F81619A11719A23D381819FB50
:101720001919FC1419FB1519FC1819F71919F814D3
:1017300019F71519F86570657065701819F719199A
:10174000F81419F71519F81619DD1719DE6D781840
:1017500019F71919F81419F71519F81619F91719AD
:10176000FA6D781819F71919F81419F71519F816E8
:10177000196917196A6D781819F71919F81419F7F2
:101780001519F8121D781819F71919F814194E15AA
:10179000195F281C640517A0001018194E020B0BC6
:1017A0000014195315195F281C640517B50010188B
:1017B0001953020FFF0014194F15195F281C6405F7
:1017C00017CA001018194F021225001419501519C4
:1017D0005F281C640517DF001018195002125B0007
:1017E00014195215195F281C640517F400101819F4
:1017F00052020E5E0014195415195F281C64051856
:10180000090010181954020EAE000014193A1161A3
:10181000100418190002181A00200018197B191951
:101820007C14197B15197C16199B17199C3D3818C7
:10183000197B19197C101819371018193810181934
:10184000390014199115199216197B17197C28293A
:101850007D780418790015197C16199317199410BE
:101860002A2B1F7214197B6D7818197B19197C1497
:1018700019391C181939021841000014198D15194D
:101880008E16197B17197C28297D780418B200154B
:10189000197C16198F171990102A2B1F7214197B97
:1018A0006D7818197B19197C1419381C181938020D
:1018B000187A000014197D15197E16197B17197CEA
:1018C00028297D780418E20014197B15197C122A46
:1018D000217818197B19197C1419371C181937022B
:1018E00018B30014194D15195F281C640518F7006A
:1018F0001018194D0204670014194C15195F281CA3
:101900006405190C001018194C0210640002000044
:10191000000219100000000000000000000000009C
:1019200000000000004143454748494D4F5253567F
:101930003A201B01FF10F0000000003001000103FD
:10194000040809FF01FF10F0730000000000000010
:10195000000000000000000003030400000000007D
:101960000102030708100F0000E000EF00F2C0F2D0
:10197000C1F2C2F2C3F2C4F2C5F3C4000000000019
:10198000010002000300040006000700080009002F
:101990000A006300640010001200FE00FF01000056
:1019A0000F00F080000064000000010F00008000C4
:1019B0001E01000010001003A00B60007A0000F36D
:1019C0000002B8025E00000000000000000000F409
:1019D00000F500F4FF00000000000000030000001C
:1019E00000000000000000000000000000000000F7
:1019F00000000000000000000000000000000000E7
:101A000000000000000000000000000000000000D6
:101A100000000000000000000000000000000000C6
:00000001FF
